{
  "contractName": "Raffle",
  "abi": [
    {
      "constant": true,
      "inputs": [],
      "name": "owner",
      "outputs": [
        {
          "name": "",
          "type": "address"
        }
      ],
      "payable": false,
      "stateMutability": "view",
      "type": "function"
    },
    {
      "inputs": [],
      "payable": false,
      "stateMutability": "nonpayable",
      "type": "constructor"
    },
    {
      "constant": false,
      "inputs": [],
      "name": "buy",
      "outputs": [],
      "payable": true,
      "stateMutability": "payable",
      "type": "function"
    },
    {
      "constant": true,
      "inputs": [],
      "name": "getPlayers",
      "outputs": [
        {
          "name": "",
          "type": "address[]"
        }
      ],
      "payable": false,
      "stateMutability": "view",
      "type": "function"
    },
    {
      "constant": false,
      "inputs": [],
      "name": "pickWinner",
      "outputs": [],
      "payable": false,
      "stateMutability": "nonpayable",
      "type": "function"
    }
  ],
  "bytecode": "0x608060405234801561001057600080fd5b50336000806101000a81548173ffffffffffffffffffffffffffffffffffffffff021916908373ffffffffffffffffffffffffffffffffffffffff16021790555061062d806100606000396000f300608060405260043610610062576000357c0100000000000000000000000000000000000000000000000000000000900463ffffffff1680635d495aea146100675780638b5b9ccc1461007e5780638da5cb5b146100ea578063a6f2ae3a14610141575b600080fd5b34801561007357600080fd5b5061007c61014b565b005b34801561008a57600080fd5b50610093610320565b6040518080602001828103825283818151815260200191508051906020019060200280838360005b838110156100d65780820151818401526020810190506100bb565b505050509050019250505060405180910390f35b3480156100f657600080fd5b506100ff6103ae565b604051808273ffffffffffffffffffffffffffffffffffffffff1673ffffffffffffffffffffffffffffffffffffffff16815260200191505060405180910390f35b6101496103d3565b005b60008060009054906101000a900473ffffffffffffffffffffffffffffffffffffffff1673ffffffffffffffffffffffffffffffffffffffff163373ffffffffffffffffffffffffffffffffffffffff16141515610211576040517f08c379a00000000000000000000000000000000000000000000000000000000081526004018080602001828103825260198152602001807f4f6e6c79206f776e65722063616e2063616c6c20746869732e0000000000000081525060200191505060405180910390fd5b600060018054905011151561022557600080fd5b60018054905061023361048c565b81151561023c57fe5b06905060018181548110151561024e57fe5b9060005260206000200160009054906101000a900473ffffffffffffffffffffffffffffffffffffffff1673ffffffffffffffffffffffffffffffffffffffff166108fc3073ffffffffffffffffffffffffffffffffffffffff16319081150290604051600060405180830381858888f193505050501580156102d5573d6000803e3d6000fd5b5060006040519080825280602002602001820160405280156103065781602001602082028038833980820191505090505b506001908051906020019061031c929190610534565b5050565b606060018054806020026020016040519081016040528092919081815260200182805480156103a457602002820191906000526020600020905b8160009054906101000a900473ffffffffffffffffffffffffffffffffffffffff1673ffffffffffffffffffffffffffffffffffffffff168152602001906001019080831161035a575b5050505050905090565b6000809054906101000a900473ffffffffffffffffffffffffffffffffffffffff1681565b600080662386f26fc1000034101515156103ec57600080fd5b610406662386f26fc100003461051e90919063ffffffff16565b9150600090505b818110156104885760013390806001815401808255809150509060018203906000526020600020016000909192909190916101000a81548173ffffffffffffffffffffffffffffffffffffffff021916908373ffffffffffffffffffffffffffffffffffffffff16021790555050808060010191505061040d565b5050565b60004442600160405180848152602001838152602001828054801561050657602002820191906000526020600020905b8160009054906101000a900473ffffffffffffffffffffffffffffffffffffffff1673ffffffffffffffffffffffffffffffffffffffff16815260200190600101908083116104bc575b50509350505050604051809103902060019004905090565b6000818381151561052b57fe5b04905092915050565b8280548282559060005260206000209081019282156105ad579160200282015b828111156105ac5782518260006101000a81548173ffffffffffffffffffffffffffffffffffffffff021916908373ffffffffffffffffffffffffffffffffffffffff16021790555091602001919060010190610554565b5b5090506105ba91906105be565b5090565b6105fe91905b808211156105fa57600081816101000a81549073ffffffffffffffffffffffffffffffffffffffff0219169055506001016105c4565b5090565b905600a165627a7a723058202ac3d8f76243043d213eaa7499b76b1f6d82bf430f597d90af35d6859deacd2d0029",
  "source": "pragma solidity ^0.4.23;\n\n/**\n * @title SafeMath\n * @dev Math operations with safety checks that throw on error\n */\nlibrary SafeMath {\n\n    /**\n    * @dev Multiplies two numbers, throws on overflow.\n    */\n    function mul(uint256 a, uint256 b) internal pure returns (uint256 c) {\n        if (a == 0) {\n            return 0;\n        }\n        c = a * b;\n        assert(c / a == b);\n        return c;\n    }\n\n    /**\n    * @dev Integer division of two numbers, truncating the quotient.\n    */\n    function div(uint256 a, uint256 b) internal pure returns (uint256) {\n        // assert(b > 0); // Solidity automatically throws when dividing by 0\n        // uint256 c = a / b;\n        // assert(a == b * c + a % b); // There is no case in which this doesn't hold\n        return a / b;\n    }\n\n    /**\n    * @dev Subtracts two numbers, throws on overflow (i.e. if subtrahend is greater than minuend).\n    */\n    function sub(uint256 a, uint256 b) internal pure returns (uint256) {\n        assert(b <= a);\n        return a - b;\n    }\n\n    /**\n    * @dev Adds two numbers, throws on overflow.\n    */\n    function add(uint256 a, uint256 b) internal pure returns (uint256 c) {\n        c = a + b;\n        assert(c >= a);\n        return c;\n    }\n}\n\ncontract Raffle {\n    using SafeMath for uint;\n\n    address public owner;\n    address[] private players;\n\n    constructor() public {\n        owner = msg.sender;\n    }\n\n    function buy() external payable {\n        require(msg.value >= .01 ether);\n        uint numberOfeEtries = msg.value.div(.01 ether);\n        for (uint index = 0; index < numberOfeEtries; index++) {\n            players.push(msg.sender);\n        }\n    }\n\n    function getPlayers() external view returns (address[]) {\n        return players;\n    }\n\n    modifier onlyOwner() {\n        require(msg.sender == owner, \"Only owner can call this.\");\n        _;\n    }\n\n    function pickWinner() external onlyOwner {\n        require(players.length > 0);\n    \n        uint index = random() % players.length;\n        players[index].transfer(address(this).balance);\n        players = new address[](0);\n    }\n\n    function random() private view returns (uint) {\n        return uint(keccak256(block.difficulty, now, players));\n    }\n}",
  "sourcePath": "/Users/jake.lin/dev/Jake/crypto-raffle/contracts/Raffle.sol",
  "compiler": {
    "name": "solc",
    "version": "0.4.23+commit.124ca40d.Emscripten.clang"
  },
  "schemaVersion": "2.0.0",
  "updatedAt": "2018-05-10T07:17:18.554Z"
}